{
  "_format": "hh-sol-artifact-1",
  "contractName": "DataConsumeContract",
  "sourceName": "contracts/DataConsumeContract.sol",
  "abi": [
    {
      "inputs": [],
      "stateMutability": "nonpayable",
      "type": "constructor"
    },
    {
      "anonymous": false,
      "inputs": [
        {
          "indexed": false,
          "internalType": "address",
          "name": "datasource",
          "type": "address"
        },
        {
          "indexed": false,
          "internalType": "string",
          "name": "token",
          "type": "string"
        },
        {
          "indexed": false,
          "internalType": "string",
          "name": "nonce",
          "type": "string"
        }
      ],
      "name": "AccessTokenAdded",
      "type": "event"
    },
    {
      "anonymous": false,
      "inputs": [
        {
          "indexed": false,
          "internalType": "address",
          "name": "datausingservice",
          "type": "address"
        },
        {
          "indexed": false,
          "internalType": "string",
          "name": "token",
          "type": "string"
        },
        {
          "indexed": false,
          "internalType": "string",
          "name": "nonce",
          "type": "string"
        }
      ],
      "name": "AccessTokenReleased",
      "type": "event"
    },
    {
      "anonymous": false,
      "inputs": [
        {
          "indexed": false,
          "internalType": "address",
          "name": "organisation",
          "type": "address"
        },
        {
          "indexed": false,
          "internalType": "string",
          "name": "did",
          "type": "string"
        }
      ],
      "name": "DAFinalised",
      "type": "event"
    },
    {
      "anonymous": false,
      "inputs": [
        {
          "indexed": false,
          "internalType": "address",
          "name": "organisation",
          "type": "address"
        },
        {
          "indexed": false,
          "internalType": "string",
          "name": "did",
          "type": "string"
        }
      ],
      "name": "DDAFinalised",
      "type": "event"
    },
    {
      "anonymous": false,
      "inputs": [
        {
          "indexed": false,
          "internalType": "address",
          "name": "organisation",
          "type": "address"
        }
      ],
      "name": "OrganisationAdded",
      "type": "event"
    },
    {
      "anonymous": false,
      "inputs": [
        {
          "indexed": false,
          "internalType": "address",
          "name": "organisation",
          "type": "address"
        }
      ],
      "name": "OrganisationRemoved",
      "type": "event"
    },
    {
      "anonymous": false,
      "inputs": [
        {
          "indexed": true,
          "internalType": "address",
          "name": "oldOwner",
          "type": "address"
        },
        {
          "indexed": true,
          "internalType": "address",
          "name": "newOwner",
          "type": "address"
        }
      ],
      "name": "OwnerSet",
      "type": "event"
    },
    {
      "inputs": [
        {
          "internalType": "address",
          "name": "",
          "type": "address"
        },
        {
          "internalType": "string",
          "name": "",
          "type": "string"
        }
      ],
      "name": "accesstokens",
      "outputs": [
        {
          "internalType": "string",
          "name": "",
          "type": "string"
        }
      ],
      "stateMutability": "view",
      "type": "function"
    },
    {
      "inputs": [
        {
          "internalType": "string",
          "name": "_nonce",
          "type": "string"
        },
        {
          "internalType": "string",
          "name": "_accesstoken",
          "type": "string"
        }
      ],
      "name": "addAccessToken",
      "outputs": [],
      "stateMutability": "nonpayable",
      "type": "function"
    },
    {
      "inputs": [
        {
          "internalType": "address",
          "name": "_organisation",
          "type": "address"
        }
      ],
      "name": "addOrganisation",
      "outputs": [],
      "stateMutability": "nonpayable",
      "type": "function"
    },
    {
      "inputs": [
        {
          "internalType": "address",
          "name": "newOwner",
          "type": "address"
        }
      ],
      "name": "changeOwner",
      "outputs": [],
      "stateMutability": "nonpayable",
      "type": "function"
    },
    {
      "inputs": [
        {
          "internalType": "string",
          "name": "_did",
          "type": "string"
        }
      ],
      "name": "emitDADID",
      "outputs": [],
      "stateMutability": "nonpayable",
      "type": "function"
    },
    {
      "inputs": [
        {
          "internalType": "string",
          "name": "_did",
          "type": "string"
        }
      ],
      "name": "emitDDADID",
      "outputs": [],
      "stateMutability": "nonpayable",
      "type": "function"
    },
    {
      "inputs": [],
      "name": "getOwner",
      "outputs": [
        {
          "internalType": "address",
          "name": "",
          "type": "address"
        }
      ],
      "stateMutability": "view",
      "type": "function"
    },
    {
      "inputs": [
        {
          "internalType": "address",
          "name": "_organisation",
          "type": "address"
        }
      ],
      "name": "isMember",
      "outputs": [
        {
          "internalType": "bool",
          "name": "",
          "type": "bool"
        }
      ],
      "stateMutability": "view",
      "type": "function"
    },
    {
      "inputs": [],
      "name": "owner",
      "outputs": [
        {
          "internalType": "address",
          "name": "",
          "type": "address"
        }
      ],
      "stateMutability": "view",
      "type": "function"
    },
    {
      "inputs": [
        {
          "internalType": "string",
          "name": "_nonce",
          "type": "string"
        },
        {
          "internalType": "address",
          "name": "_organisation",
          "type": "address"
        }
      ],
      "name": "releaseAccessToken",
      "outputs": [
        {
          "internalType": "string",
          "name": "",
          "type": "string"
        }
      ],
      "stateMutability": "nonpayable",
      "type": "function"
    },
    {
      "inputs": [
        {
          "internalType": "address",
          "name": "_organisation",
          "type": "address"
        }
      ],
      "name": "removeOrganisation",
      "outputs": [],
      "stateMutability": "nonpayable",
      "type": "function"
    }
  ],
  "bytecode": "0x608060405234801561001057600080fd5b50336000806101000a81548173ffffffffffffffffffffffffffffffffffffffff021916908373ffffffffffffffffffffffffffffffffffffffff16021790555060008054906101000a900473ffffffffffffffffffffffffffffffffffffffff1673ffffffffffffffffffffffffffffffffffffffff16600073ffffffffffffffffffffffffffffffffffffffff167f342827c97908e5e2f71151c08502a66d44b6f758e3ac2f1de95f02eb95f0a73560405160405180910390a36112d7806100db6000396000f3fe608060405234801561001057600080fd5b50600436106100a95760003560e01c8063a6f9dae111610071578063a6f9dae114610152578063bb23cbe71461016e578063d1f8a2081461018a578063e192992e146101a6578063e4bc32f2146101c2578063f703fab4146101f2576100a9565b806316637e65146100ae5780635bbb5a9e146100ca578063893d20e8146100e65780638da5cb5b14610104578063a230c52414610122575b600080fd5b6100c860048036038101906100c39190610d54565b610222565b005b6100e460048036038101906100df9190610de9565b6102a6565b005b6100ee61039d565b6040516100fb9190610fb4565b60405180910390f35b61010c6103c6565b6040516101199190610fb4565b60405180910390f35b61013c60048036038101906101379190610cd7565b6103ea565b6040516101499190611044565b60405180910390f35b61016c60048036038101906101679190610cd7565b610440565b005b61018860048036038101906101839190610cd7565b61058b565b005b6101a4600480360381019061019f9190610cd7565b6106f3565b005b6101c060048036038101906101bb9190610d54565b610852565b005b6101dc60048036038101906101d79190610d95565b6108d6565b6040516101e9919061105f565b60405180910390f35b61020c60048036038101906102079190610d00565b610ab4565b604051610219919061105f565b60405180910390f35b61022b336103ea565b61026a576040517f08c379a0000000000000000000000000000000000000000000000000000000008152600401610261906110a1565b60405180910390fd5b7f0244fa209677670c0a1bc9a496e4366cc0fbb90f957fda7ad775d454d98a54d7338260405161029b929190610fcf565b60405180910390a150565b6102af336103ea565b6102ee576040517f08c379a00000000000000000000000000000000000000000000000000000000081526004016102e5906110a1565b60405180910390fd5b80600260003373ffffffffffffffffffffffffffffffffffffffff1673ffffffffffffffffffffffffffffffffffffffff1681526020019081526020016000208360405161033c9190610f9d565b9081526020016040518091039020908051906020019061035d929190610b77565b507fbae8fc03ec304b68be33254a96be492d7cc609d75635af60bb3425169805041533828460405161039193929190610fff565b60405180910390a15050565b60008060009054906101000a900473ffffffffffffffffffffffffffffffffffffffff16905090565b60008054906101000a900473ffffffffffffffffffffffffffffffffffffffff1681565b6000600160008373ffffffffffffffffffffffffffffffffffffffff1673ffffffffffffffffffffffffffffffffffffffff16815260200190815260200160002060009054906101000a900460ff169050919050565b60008054906101000a900473ffffffffffffffffffffffffffffffffffffffff1673ffffffffffffffffffffffffffffffffffffffff163373ffffffffffffffffffffffffffffffffffffffff16146104ce576040517f08c379a00000000000000000000000000000000000000000000000000000000081526004016104c590611081565b60405180910390fd5b8073ffffffffffffffffffffffffffffffffffffffff1660008054906101000a900473ffffffffffffffffffffffffffffffffffffffff1673ffffffffffffffffffffffffffffffffffffffff167f342827c97908e5e2f71151c08502a66d44b6f758e3ac2f1de95f02eb95f0a73560405160405180910390a3806000806101000a81548173ffffffffffffffffffffffffffffffffffffffff021916908373ffffffffffffffffffffffffffffffffffffffff16021790555050565b60008054906101000a900473ffffffffffffffffffffffffffffffffffffffff1673ffffffffffffffffffffffffffffffffffffffff163373ffffffffffffffffffffffffffffffffffffffff1614610619576040517f08c379a000000000000000000000000000000000000000000000000000000000815260040161061090611081565b60405180910390fd5b610622816103ea565b15610662576040517f08c379a0000000000000000000000000000000000000000000000000000000008152600401610659906110c1565b60405180910390fd5b60018060008373ffffffffffffffffffffffffffffffffffffffff1673ffffffffffffffffffffffffffffffffffffffff16815260200190815260200160002060006101000a81548160ff0219169083151502179055507fab0308133063a478b3b48e4ca6f656f7e3f4c8a99490eeb162e0dd1d0e64970e816040516106e89190610fb4565b60405180910390a150565b60008054906101000a900473ffffffffffffffffffffffffffffffffffffffff1673ffffffffffffffffffffffffffffffffffffffff163373ffffffffffffffffffffffffffffffffffffffff1614610781576040517f08c379a000000000000000000000000000000000000000000000000000000000815260040161077890611081565b60405180910390fd5b61078a816103ea565b6107c9576040517f08c379a00000000000000000000000000000000000000000000000000000000081526004016107c0906110a1565b60405180910390fd5b600160008273ffffffffffffffffffffffffffffffffffffffff1673ffffffffffffffffffffffffffffffffffffffff16815260200190815260200160002060006101000a81549060ff02191690557f42941ab3d9a67de93cba2219061f8d81fa215246f4f29bffdbeb21818d91c08b816040516108479190610fb4565b60405180910390a150565b61085b336103ea565b61089a576040517f08c379a0000000000000000000000000000000000000000000000000000000008152600401610891906110a1565b60405180910390fd5b7f4e150122469c41cabaed86f052f77ab5710f2ed06b77128badbe5d67ccbd384a33826040516108cb929190610fcf565b60405180910390a150565b60606108e1336103ea565b610920576040517f08c379a0000000000000000000000000000000000000000000000000000000008152600401610917906110a1565b60405180910390fd5b6000600260008473ffffffffffffffffffffffffffffffffffffffff1673ffffffffffffffffffffffffffffffffffffffff1681526020019081526020016000208460405161096f9190610f9d565b90815260200160405180910390208054610988906111e9565b80601f01602080910402602001604051908101604052809291908181526020018280546109b4906111e9565b8015610a015780601f106109d657610100808354040283529160200191610a01565b820191906000526020600020905b8154815290600101906020018083116109e457829003601f168201915b505050505090507f1c8b410f2e72c2d33e6f9bf7ae13d43433f2943885170cb9c1310fefee0efae1338286604051610a3b93929190610fff565b60405180910390a1600260008473ffffffffffffffffffffffffffffffffffffffff1673ffffffffffffffffffffffffffffffffffffffff16815260200190815260200160002084604051610a909190610f9d565b90815260200160405180910390206000610aaa9190610bfd565b8091505092915050565b600260205281600052604060002081805160208101820180518482526020830160208501208183528095505050505050600091509150508054610af6906111e9565b80601f0160208091040260200160405190810160405280929190818152602001828054610b22906111e9565b8015610b6f5780601f10610b4457610100808354040283529160200191610b6f565b820191906000526020600020905b815481529060010190602001808311610b5257829003601f168201915b505050505081565b828054610b83906111e9565b90600052602060002090601f016020900481019282610ba55760008555610bec565b82601f10610bbe57805160ff1916838001178555610bec565b82800160010185558215610bec579182015b82811115610beb578251825591602001919060010190610bd0565b5b509050610bf99190610c3d565b5090565b508054610c09906111e9565b6000825580601f10610c1b5750610c3a565b601f016020900490600052602060002090810190610c399190610c3d565b5b50565b5b80821115610c56576000816000905550600101610c3e565b5090565b6000610c6d610c6884611112565b6110e1565b905082815260208101848484011115610c8557600080fd5b610c908482856111a7565b509392505050565b600081359050610ca78161128a565b92915050565b600082601f830112610cbe57600080fd5b8135610cce848260208601610c5a565b91505092915050565b600060208284031215610ce957600080fd5b6000610cf784828501610c98565b91505092915050565b60008060408385031215610d1357600080fd5b6000610d2185828601610c98565b925050602083013567ffffffffffffffff811115610d3e57600080fd5b610d4a85828601610cad565b9150509250929050565b600060208284031215610d6657600080fd5b600082013567ffffffffffffffff811115610d8057600080fd5b610d8c84828501610cad565b91505092915050565b60008060408385031215610da857600080fd5b600083013567ffffffffffffffff811115610dc257600080fd5b610dce85828601610cad565b9250506020610ddf85828601610c98565b9150509250929050565b60008060408385031215610dfc57600080fd5b600083013567ffffffffffffffff811115610e1657600080fd5b610e2285828601610cad565b925050602083013567ffffffffffffffff811115610e3f57600080fd5b610e4b85828601610cad565b9150509250929050565b610e5e81611169565b82525050565b610e6d8161117b565b82525050565b6000610e7e82611142565b610e88818561114d565b9350610e988185602086016111b6565b610ea181611279565b840191505092915050565b6000610eb782611142565b610ec1818561115e565b9350610ed18185602086016111b6565b80840191505092915050565b6000610eea60138361114d565b91507f43616c6c6572206973206e6f74206f776e6572000000000000000000000000006000830152602082019050919050565b6000610f2a60188361114d565b91507f4e6f74206d656d626572206f662077686974656c6973742e00000000000000006000830152602082019050919050565b6000610f6a601a8361114d565b91507f41646472657373206973206d656d62657220616c72656164792e0000000000006000830152602082019050919050565b6000610fa98284610eac565b915081905092915050565b6000602082019050610fc96000830184610e55565b92915050565b6000604082019050610fe46000830185610e55565b8181036020830152610ff68184610e73565b90509392505050565b60006060820190506110146000830186610e55565b81810360208301526110268185610e73565b9050818103604083015261103a8184610e73565b9050949350505050565b60006020820190506110596000830184610e64565b92915050565b600060208201905081810360008301526110798184610e73565b905092915050565b6000602082019050818103600083015261109a81610edd565b9050919050565b600060208201905081810360008301526110ba81610f1d565b9050919050565b600060208201905081810360008301526110da81610f5d565b9050919050565b6000604051905081810181811067ffffffffffffffff821117156111085761110761124a565b5b8060405250919050565b600067ffffffffffffffff82111561112d5761112c61124a565b5b601f19601f8301169050602081019050919050565b600081519050919050565b600082825260208201905092915050565b600081905092915050565b600061117482611187565b9050919050565b60008115159050919050565b600073ffffffffffffffffffffffffffffffffffffffff82169050919050565b82818337600083830152505050565b60005b838110156111d45780820151818401526020810190506111b9565b838111156111e3576000848401525b50505050565b6000600282049050600182168061120157607f821691505b602082108114156112155761121461121b565b5b50919050565b7f4e487b7100000000000000000000000000000000000000000000000000000000600052602260045260246000fd5b7f4e487b7100000000000000000000000000000000000000000000000000000000600052604160045260246000fd5b6000601f19601f8301169050919050565b61129381611169565b811461129e57600080fd5b5056fea2646970667358221220f82b494c681d6b57d867ce32906e8c4393a6c56ee009b0f6fee1c24c957ca68964736f6c63430008000033",
  "linkReferences": {},
  "deployedLinkReferences": {}
}